{
  "contractName": "Geekt",
  "abi": [
    {
      "inputs": [
        {
          "internalType": "string",
          "name": "handle",
          "type": "string"
        },
        {
          "internalType": "string",
          "name": "city",
          "type": "string"
        },
        {
          "internalType": "string",
          "name": "state",
          "type": "string"
        },
        {
          "internalType": "string",
          "name": "country",
          "type": "string"
        }
      ],
      "name": "registerNewUser",
      "outputs": [
        {
          "internalType": "bool",
          "name": "success",
          "type": "bool"
        }
      ],
      "stateMutability": "nonpayable",
      "type": "function"
    },
    {
      "inputs": [
        {
          "internalType": "string",
          "name": "imageURL",
          "type": "string"
        },
        {
          "internalType": "bytes32",
          "name": "SHA256notaryHash",
          "type": "bytes32"
        }
      ],
      "name": "addImageToUser",
      "outputs": [
        {
          "internalType": "bool",
          "name": "success",
          "type": "bool"
        }
      ],
      "stateMutability": "nonpayable",
      "type": "function"
    },
    {
      "inputs": [],
      "name": "getUsers",
      "outputs": [
        {
          "internalType": "address[]",
          "name": "",
          "type": "address[]"
        }
      ],
      "stateMutability": "view",
      "type": "function",
      "constant": true
    },
    {
      "inputs": [
        {
          "internalType": "address",
          "name": "userAddress",
          "type": "address"
        }
      ],
      "name": "getUser",
      "outputs": [
        {
          "internalType": "string",
          "name": "",
          "type": "string"
        },
        {
          "internalType": "string",
          "name": "",
          "type": "string"
        },
        {
          "internalType": "string",
          "name": "",
          "type": "string"
        },
        {
          "internalType": "string",
          "name": "",
          "type": "string"
        },
        {
          "internalType": "bytes32[]",
          "name": "",
          "type": "bytes32[]"
        }
      ],
      "stateMutability": "view",
      "type": "function",
      "constant": true
    },
    {
      "inputs": [],
      "name": "getAllImages",
      "outputs": [
        {
          "internalType": "bytes32[]",
          "name": "",
          "type": "bytes32[]"
        }
      ],
      "stateMutability": "view",
      "type": "function",
      "constant": true
    },
    {
      "inputs": [
        {
          "internalType": "address",
          "name": "userAddress",
          "type": "address"
        }
      ],
      "name": "getUserImages",
      "outputs": [
        {
          "internalType": "bytes32[]",
          "name": "",
          "type": "bytes32[]"
        }
      ],
      "stateMutability": "view",
      "type": "function",
      "constant": true
    },
    {
      "inputs": [
        {
          "internalType": "bytes32",
          "name": "SHA256notaryHash",
          "type": "bytes32"
        }
      ],
      "name": "getImage",
      "outputs": [
        {
          "internalType": "string",
          "name": "",
          "type": "string"
        },
        {
          "internalType": "uint256",
          "name": "",
          "type": "uint256"
        }
      ],
      "stateMutability": "view",
      "type": "function",
      "constant": true
    }
  ],
  "bytecode": "0x608060405234801561001057600080fd5b5061139c806100206000396000f3fe608060405234801561001057600080fd5b506004361061007c5760003560e01c80637b7284fc1161005b5780637b7284fc146101045780637f2a6a5c14610122578063d0c7008214610152578063eb6bbd78146101825761007c565b8062ce8e3e146100815780636ced1ae91461009f5780636f77926b146100d0575b600080fd5b6100896101b2565b6040516100969190610d3d565b60405180910390f35b6100b960048036038101906100b49190610da9565b610240565b6040516100c7929190610e88565b60405180910390f35b6100ea60048036038101906100e59190610ee4565b610306565b6040516100fb959493929190610fcf565b60405180910390f35b61010c6106ed565b6040516101199190611045565b60405180910390f35b61013c6004803603810190610137919061119c565b610745565b6040516101499190611213565b60405180910390f35b61016c6004803603810190610167919061122e565b6108ce565b6040516101799190611213565b60405180910390f35b61019c60048036038101906101979190610ee4565b610b10565b6040516101a99190611045565b60405180910390f35b6060600480548060200260200160405190810160405280929190818152602001828054801561023657602002820191906000526020600020905b8160009054906101000a900473ffffffffffffffffffffffffffffffffffffffff1673ffffffffffffffffffffffffffffffffffffffff16815260200190600101908083116101ec575b5050505050905090565b6060600060016000848152602001908152602001600020600001600160008581526020019081526020016000206001015481805461027d90611334565b80601f01602080910402602001604051908101604052809291908181526020018280546102a990611334565b80156102f65780601f106102cb576101008083540402835291602001916102f6565b820191906000526020600020905b8154815290600101906020018083116102d957829003601f168201915b5050505050915091509150915091565b6060806060806060600360008773ffffffffffffffffffffffffffffffffffffffff1673ffffffffffffffffffffffffffffffffffffffff168152602001908152602001600020600001600360008873ffffffffffffffffffffffffffffffffffffffff1673ffffffffffffffffffffffffffffffffffffffff168152602001908152602001600020600101600360008973ffffffffffffffffffffffffffffffffffffffff1673ffffffffffffffffffffffffffffffffffffffff168152602001908152602001600020600201600360008a73ffffffffffffffffffffffffffffffffffffffff1673ffffffffffffffffffffffffffffffffffffffff168152602001908152602001600020600301600360008b73ffffffffffffffffffffffffffffffffffffffff1673ffffffffffffffffffffffffffffffffffffffff16815260200190815260200160002060040184805461046490611334565b80601f016020809104026020016040519081016040528092919081815260200182805461049090611334565b80156104dd5780601f106104b2576101008083540402835291602001916104dd565b820191906000526020600020905b8154815290600101906020018083116104c057829003601f168201915b505050505094508380546104f090611334565b80601f016020809104026020016040519081016040528092919081815260200182805461051c90611334565b80156105695780601f1061053e57610100808354040283529160200191610569565b820191906000526020600020905b81548152906001019060200180831161054c57829003601f168201915b5050505050935082805461057c90611334565b80601f01602080910402602001604051908101604052809291908181526020018280546105a890611334565b80156105f55780601f106105ca576101008083540402835291602001916105f5565b820191906000526020600020905b8154815290600101906020018083116105d857829003601f168201915b5050505050925081805461060890611334565b80601f016020809104026020016040519081016040528092919081815260200182805461063490611334565b80156106815780601f1061065657610100808354040283529160200191610681565b820191906000526020600020905b81548152906001019060200180831161066457829003601f168201915b50505050509150808054806020026020016040519081016040528092919081815260200182805480156106d357602002820191906000526020600020905b8154815260200190600101908083116106bf575b505050505090509450945094509450945091939590929450565b6060600280548060200260200160405190810160405280929190818152602001828054801561073b57602002820191906000526020600020905b815481526020019060010190808311610727575b5050505050905090565b6000803390506000600360008373ffffffffffffffffffffffffffffffffffffffff1673ffffffffffffffffffffffffffffffffffffffff168152602001908152602001600020600001805461079a90611334565b9050146108c25760008451146108b85760006001600085815260200190815260200160002060000180546107cd90611334565b905014156107ff5760028390806001815401808255809150506001900390600052602060002001600090919091909150555b83600160008581526020019081526020016000206000019080519060200190610829929190610baa565b50426001600085815260200190815260200160002060010181905550600360008273ffffffffffffffffffffffffffffffffffffffff1673ffffffffffffffffffffffffffffffffffffffff16815260200190815260200160002060040183908060018154018082558091505060019003906000526020600020016000909190919091505560019150506108c8565b60009150506108c8565b60009150505b92915050565b6000803390506000600360003373ffffffffffffffffffffffffffffffffffffffff1673ffffffffffffffffffffffffffffffffffffffff168152602001908152602001600020600001805461092390611334565b905014801561093457506000865114155b15610b025785600360008373ffffffffffffffffffffffffffffffffffffffff1673ffffffffffffffffffffffffffffffffffffffff168152602001908152602001600020600001908051906020019061098f929190610baa565b5084600360008373ffffffffffffffffffffffffffffffffffffffff1673ffffffffffffffffffffffffffffffffffffffff16815260200190815260200160002060010190805190602001906109e6929190610baa565b5083600360008373ffffffffffffffffffffffffffffffffffffffff1673ffffffffffffffffffffffffffffffffffffffff1681526020019081526020016000206002019080519060200190610a3d929190610baa565b5082600360008373ffffffffffffffffffffffffffffffffffffffff1673ffffffffffffffffffffffffffffffffffffffff1681526020019081526020016000206003019080519060200190610a94929190610baa565b506004819080600181540180825580915050600190039060005260206000200160009091909190916101000a81548173ffffffffffffffffffffffffffffffffffffffff021916908373ffffffffffffffffffffffffffffffffffffffff1602179055506001915050610b08565b60009150505b949350505050565b6060600360008373ffffffffffffffffffffffffffffffffffffffff1673ffffffffffffffffffffffffffffffffffffffff168152602001908152602001600020600401805480602002602001604051908101604052809291908181526020018280548015610b9e57602002820191906000526020600020905b815481526020019060010190808311610b8a575b50505050509050919050565b828054610bb690611334565b90600052602060002090601f016020900481019282610bd85760008555610c1f565b82601f10610bf157805160ff1916838001178555610c1f565b82800160010185558215610c1f579182015b82811115610c1e578251825591602001919060010190610c03565b5b509050610c2c9190610c30565b5090565b5b80821115610c49576000816000905550600101610c31565b5090565b600081519050919050565b600082825260208201905092915050565b6000819050602082019050919050565b600073ffffffffffffffffffffffffffffffffffffffff82169050919050565b6000610ca482610c79565b9050919050565b610cb481610c99565b82525050565b6000610cc68383610cab565b60208301905092915050565b6000602082019050919050565b6000610cea82610c4d565b610cf48185610c58565b9350610cff83610c69565b8060005b83811015610d30578151610d178882610cba565b9750610d2283610cd2565b925050600181019050610d03565b5085935050505092915050565b60006020820190508181036000830152610d578184610cdf565b905092915050565b6000604051905090565b600080fd5b600080fd5b6000819050919050565b610d8681610d73565b8114610d9157600080fd5b50565b600081359050610da381610d7d565b92915050565b600060208284031215610dbf57610dbe610d69565b5b6000610dcd84828501610d94565b91505092915050565b600081519050919050565b600082825260208201905092915050565b60005b83811015610e10578082015181840152602081019050610df5565b83811115610e1f576000848401525b50505050565b6000601f19601f8301169050919050565b6000610e4182610dd6565b610e4b8185610de1565b9350610e5b818560208601610df2565b610e6481610e25565b840191505092915050565b6000819050919050565b610e8281610e6f565b82525050565b60006040820190508181036000830152610ea28185610e36565b9050610eb16020830184610e79565b9392505050565b610ec181610c99565b8114610ecc57600080fd5b50565b600081359050610ede81610eb8565b92915050565b600060208284031215610efa57610ef9610d69565b5b6000610f0884828501610ecf565b91505092915050565b600081519050919050565b600082825260208201905092915050565b6000819050602082019050919050565b610f4681610d73565b82525050565b6000610f588383610f3d565b60208301905092915050565b6000602082019050919050565b6000610f7c82610f11565b610f868185610f1c565b9350610f9183610f2d565b8060005b83811015610fc2578151610fa98882610f4c565b9750610fb483610f64565b925050600181019050610f95565b5085935050505092915050565b600060a0820190508181036000830152610fe98188610e36565b90508181036020830152610ffd8187610e36565b905081810360408301526110118186610e36565b905081810360608301526110258185610e36565b905081810360808301526110398184610f71565b90509695505050505050565b6000602082019050818103600083015261105f8184610f71565b905092915050565b600080fd5b600080fd5b7f4e487b7100000000000000000000000000000000000000000000000000000000600052604160045260246000fd5b6110a982610e25565b810181811067ffffffffffffffff821117156110c8576110c7611071565b5b80604052505050565b60006110db610d5f565b90506110e782826110a0565b919050565b600067ffffffffffffffff82111561110757611106611071565b5b61111082610e25565b9050602081019050919050565b82818337600083830152505050565b600061113f61113a846110ec565b6110d1565b90508281526020810184848401111561115b5761115a61106c565b5b61116684828561111d565b509392505050565b600082601f83011261118357611182611067565b5b813561119384826020860161112c565b91505092915050565b600080604083850312156111b3576111b2610d69565b5b600083013567ffffffffffffffff8111156111d1576111d0610d6e565b5b6111dd8582860161116e565b92505060206111ee85828601610d94565b9150509250929050565b60008115159050919050565b61120d816111f8565b82525050565b60006020820190506112286000830184611204565b92915050565b6000806000806080858703121561124857611247610d69565b5b600085013567ffffffffffffffff81111561126657611265610d6e565b5b6112728782880161116e565b945050602085013567ffffffffffffffff81111561129357611292610d6e565b5b61129f8782880161116e565b935050604085013567ffffffffffffffff8111156112c0576112bf610d6e565b5b6112cc8782880161116e565b925050606085013567ffffffffffffffff8111156112ed576112ec610d6e565b5b6112f98782880161116e565b91505092959194509250565b7f4e487b7100000000000000000000000000000000000000000000000000000000600052602260045260246000fd5b6000600282049050600182168061134c57607f821691505b602082108114156113605761135f611305565b5b5091905056fea264697066735822122047315e274fe8164b438da07960779c012f565ee4c2cbed52c17c866277396e5464736f6c634300080c0033",
  "immutableReferences": {},
  "source": "pragma solidity ^0.8.12;\r\n\r\ncontract Geekt {\r\n\r\n    address payable GeektAdmin;\r\n\r\n    mapping(bytes32 => notarizedImage) notarizedImages; // this allows to look up notarizedImages by their SHA256notaryHash\r\n    bytes32[] imagesByNotaryHash; // this is like a whitepages of all images, by SHA256notaryHash\r\n\r\n    mapping ( address => User ) Users;   // this allows to look up Users by their ethereum address\r\n    address[] usersByAddress;  // this is like a whitepages of all users, by ethereum address\r\n\r\n    struct notarizedImage {\r\n        string imageURL;\r\n        uint timeStamp;\r\n    }\r\n\r\n    struct User {\r\n        string handle;\r\n        string city;\r\n        string state;\r\n        string country;\r\n        bytes32[] myImages;\r\n    }\r\n\r\n    function registerNewUser(string memory handle, string memory city, string memory state, string memory country) public returns (bool success) {\r\n        address thisNewAddress = msg.sender;\r\n        // don't overwrite existing entries, and make sure handle isn't null\r\n        if(bytes(Users[msg.sender].handle).length == 0 && bytes(handle).length != 0){\r\n            Users[thisNewAddress].handle = handle;\r\n            Users[thisNewAddress].city = city;\r\n            Users[thisNewAddress].state = state;\r\n            Users[thisNewAddress].country = country;\r\n            usersByAddress.push(thisNewAddress);  // adds an entry for this user to the user 'whitepages'\r\n            return true;\r\n        } else {\r\n            return false; // either handle was null, or a user with this handle already existed\r\n        }\r\n    }\r\n\r\n    function addImageToUser(string memory imageURL, bytes32 SHA256notaryHash) public returns (bool success) {\r\n        address thisNewAddress = msg.sender;\r\n        if(bytes(Users[thisNewAddress].handle).length != 0){ // make sure this user has created an account first\r\n            if(bytes(imageURL).length != 0){   // ) {  // couldn't get bytes32 null check to work, oh well!\r\n                // prevent users from fighting over sha->image listings in the whitepages, but still allow them to add a personal ref to any sha\r\n                if(bytes(notarizedImages[SHA256notaryHash].imageURL).length == 0) {\r\n                    imagesByNotaryHash.push(SHA256notaryHash); // adds entry for this image to our image whitepages\r\n                }\r\n                notarizedImages[SHA256notaryHash].imageURL = imageURL;\r\n                notarizedImages[SHA256notaryHash].timeStamp = block.timestamp; // note that updating an image also updates the timestamp\r\n                Users[thisNewAddress].myImages.push(SHA256notaryHash); // add the image hash to this users .myImages array\r\n                return true;\r\n            } else {\r\n                return false; // either imageURL or SHA256notaryHash was null, couldn't store image\r\n            }\r\n        } else {\r\n            return false; // user didn't have an account yet, couldn't store image\r\n        }\r\n    }\r\n\r\n    function getUsers() public view returns (address[] memory) { return usersByAddress; }\r\n\r\n    function getUser(address userAddress) public view returns (string memory,string memory,string memory,string memory,bytes32[] memory) {\r\n        return (Users[userAddress].handle,Users[userAddress].city,Users[userAddress].state,Users[userAddress].country,Users[userAddress].myImages);\r\n    }\r\n\r\n    function getAllImages() public view returns (bytes32[] memory) { return imagesByNotaryHash; }\r\n\r\n    function getUserImages(address userAddress) public view returns (bytes32[] memory) { return Users[userAddress].myImages; }\r\n\r\n    function getImage(bytes32 SHA256notaryHash) public view returns (string memory,uint) {\r\n        return (notarizedImages[SHA256notaryHash].imageURL,notarizedImages[SHA256notaryHash].timeStamp);\r\n    }\r\n}",
  "sourcePath": "C:\\Work\\git\\Geekt\\contracts\\Geekt.sol",
  "compiler": {
    "name": "solc",
    "version": "0.8.12+commit.f00d7308.Emscripten.clang"
  },
  "schemaVersion": "3.4.5",
  "updatedAt": "2022-04-13T19:28:33.826Z",
  "networkType": "ethereum",
  "devdoc": {
    "kind": "dev",
    "methods": {},
    "version": 1
  },
  "userdoc": {
    "kind": "user",
    "methods": {},
    "version": 1
  }
}